{
    "abi": [
        {
            "anonymous": false,
            "inputs": [
                {
                    "indexed": true,
                    "internalType": "string",
                    "name": "name",
                    "type": "string"
                },
                {
                    "indexed": true,
                    "internalType": "string",
                    "name": "uri",
                    "type": "string"
                },
                {
                    "indexed": true,
                    "internalType": "uint256",
                    "name": "totalSupply",
                    "type": "uint256"
                }
            ],
            "name": "ItemCreated",
            "type": "event"
        },
        {
            "anonymous": false,
            "inputs": [
                {
                    "indexed": true,
                    "internalType": "uint256",
                    "name": "itemNum",
                    "type": "uint256"
                },
                {
                    "indexed": false,
                    "internalType": "uint256",
                    "name": "tokenId",
                    "type": "uint256"
                },
                {
                    "indexed": true,
                    "internalType": "address",
                    "name": "tokenAddress",
                    "type": "address"
                }
            ],
            "name": "ItemSold",
            "type": "event"
        },
        {
            "inputs": [],
            "name": "_totalItems",
            "outputs": [
                {
                    "internalType": "uint256",
                    "name": "",
                    "type": "uint256"
                }
            ],
            "stateMutability": "view",
            "type": "function"
        },
        {
            "inputs": [
                {
                    "internalType": "uint256",
                    "name": "",
                    "type": "uint256"
                }
            ],
            "name": "itemNumToItem",
            "outputs": [
                {
                    "internalType": "bool",
                    "name": "listing",
                    "type": "bool"
                },
                {
                    "internalType": "uint256",
                    "name": "price",
                    "type": "uint256"
                },
                {
                    "internalType": "uint256",
                    "name": "totalSupply",
                    "type": "uint256"
                },
                {
                    "internalType": "uint256",
                    "name": "totalSold",
                    "type": "uint256"
                },
                {
                    "internalType": "address",
                    "name": "itemAddress",
                    "type": "address"
                },
                {
                    "internalType": "address",
                    "name": "creator",
                    "type": "address"
                },
                {
                    "internalType": "string",
                    "name": "tokenURI",
                    "type": "string"
                },
                {
                    "internalType": "string",
                    "name": "tokenName",
                    "type": "string"
                }
            ],
            "stateMutability": "view",
            "type": "function"
        },
        {
            "inputs": [
                {
                    "internalType": "uint256",
                    "name": "itemNum_",
                    "type": "uint256"
                },
                {
                    "internalType": "uint256",
                    "name": "price_",
                    "type": "uint256"
                }
            ],
            "name": "listOnMarketplace",
            "outputs": [],
            "stateMutability": "nonpayable",
            "type": "function"
        },
        {
            "inputs": [
                {
                    "internalType": "uint256",
                    "name": "totalSupply_",
                    "type": "uint256"
                },
                {
                    "internalType": "string",
                    "name": "name_",
                    "type": "string"
                },
                {
                    "internalType": "string",
                    "name": "symbol_",
                    "type": "string"
                },
                {
                    "internalType": "string",
                    "name": "tokenURI_",
                    "type": "string"
                }
            ],
            "name": "newItem",
            "outputs": [
                {
                    "internalType": "uint256",
                    "name": "",
                    "type": "uint256"
                }
            ],
            "stateMutability": "nonpayable",
            "type": "function"
        },
        {
            "inputs": [
                {
                    "internalType": "uint256",
                    "name": "itemNum_",
                    "type": "uint256"
                }
            ],
            "name": "purchase",
            "outputs": [],
            "stateMutability": "payable",
            "type": "function"
        },
        {
            "inputs": [
                {
                    "internalType": "uint256",
                    "name": "itemNum_",
                    "type": "uint256"
                }
            ],
            "name": "removeFromMarketplace",
            "outputs": [],
            "stateMutability": "nonpayable",
            "type": "function"
        }
    ],
    "bytecode": {
        "object": "0x608060405234801561001057600080fd5b5061235f806100206000396000f3fe6080604052600436106200005c5760003560e01c80632323621d1462000061578063468be5dd14620000a557806359d75e5114620000cc578063ab38cb5614620000f3578063efef39a11462000118578063f5dda66b146200012f575b600080fd5b3480156200006e57600080fd5b50620000866200008036600462000835565b62000154565b6040516200009c989796959493929190620008a3565b60405180910390f35b348015620000b257600080fd5b50620000bd60005481565b6040519081526020016200009c565b348015620000d957600080fd5b50620000f1620000eb36600462000914565b620002cc565b005b3480156200010057600080fd5b50620000f16200011236600462000835565b62000363565b620000f16200012936600462000835565b620003fc565b3480156200013c57600080fd5b50620000bd6200014e366004620009e2565b620005c3565b6001602081905260009182526040909120805491810154600282015460038301546004840154600585015460068601805460ff909816979596949593946001600160a01b03938416949390921692620001ad9062000a7e565b80601f0160208091040260200160405190810160405280929190818152602001828054620001db9062000a7e565b80156200022c5780601f1062000200576101008083540402835291602001916200022c565b820191906000526020600020905b8154815290600101906020018083116200020e57829003601f168201915b505050505090806007018054620002439062000a7e565b80601f0160208091040260200160405190810160405280929190818152602001828054620002719062000a7e565b8015620002c25780601f106200029657610100808354040283529160200191620002c2565b820191906000526020600020905b815481529060010190602001808311620002a457829003601f168201915b5050505050905088565b600082815260016020526040902060058101546001600160a01b03163314620003515760405162461bcd60e51b815260206004820152602c60248201527f4f6e6c79206f776e65722063616e206c6973742074686520746f6b656e206f6e60448201526b206d61726b6574706c61636560a01b60648201526084015b60405180910390fd5b805460ff191660019081178255015550565b600081815260016020526040902060058101546001600160a01b03163314620003e85760405162461bcd60e51b815260206004820152603060248201527f4f6e6c79206f776e65722063616e2072656d6f76652074686520746f6b656e2060448201526f66726f6d206d61726b6574706c61636560801b606482015260840162000348565b805460ff1916815560001960019091015550565b6000818152600160205260409020805460ff166200045d5760405162461bcd60e51b815260206004820152601760248201527f54686520746f6b656e206973206e6f74206c6973746564000000000000000000604482015260640162000348565b80600101543414620004b25760405162461bcd60e51b815260206004820152601860248201527f546865207072696365206973206e6f7420636f72726563740000000000000000604482015260640162000348565b600081600301546001620004c7919062000aba565b6004838101546040516323b872dd60e01b81523092810192909252336024830152604482018390529192506001600160a01b03909116906323b872dd90606401600060405180830381600087803b1580156200052257600080fd5b505af115801562000537573d6000803e3d6000fd5b50505050600182600301600082825462000552919062000aba565b909155505060028201546003830154036200057857815460ff1916825560001960018301555b60048201546040518281526001600160a01b039091169084907fe71ee3b6ca4c2ed0f39e902d3099665a3d01b1ea580f31b1cf85bb0e75d0f6079060200160405180910390a3505050565b60006001600080828254620005d9919062000aba565b925050819055506000805490506000858530604051620005f99062000827565b620006079392919062000ae2565b604051809103906000f08015801562000624573d6000803e3d6000fd5b506040516350049cfb60e11b81529091506001600160a01b0382169063a00939f6906200065a9030908b90899060040162000b24565b600060405180830381600087803b1580156200067557600080fd5b505af11580156200068a573d6000803e3d6000fd5b505050506000604051806101000160405280600015158152602001600019815260200189815260200160008152602001836001600160a01b03168152602001336001600160a01b03168152602001868152602001888152509050806001600085815260200190815260200160002060008201518160000160006101000a81548160ff02191690831515021790555060208201518160010155604082015181600201556060820151816003015560808201518160040160006101000a8154816001600160a01b0302191690836001600160a01b0316021790555060a08201518160050160006101000a8154816001600160a01b0302191690836001600160a01b0316021790555060c0820151816006019081620007a7919062000ba9565b5060e08201516007820190620007be908262000ba9565b509050508785604051620007d3919062000c76565b604051809103902088604051620007eb919062000c76565b604051908190038120907f1378bf6381f4bd7b95019b6c0573fa45c4457032c909ac2550ed93289ba83d6e90600090a450909695505050505050565b6116958062000c9583390190565b6000602082840312156200084857600080fd5b5035919050565b60005b838110156200086c57818101518382015260200162000852565b50506000910152565b600081518084526200088f8160208601602086016200084f565b601f01601f19169290920160200192915050565b88151581526020810188905260408101879052606081018690526001600160a01b038581166080830152841660a082015261010060c08201819052600090620008ef8382018662000875565b905082810360e084015262000905818562000875565b9b9a5050505050505050505050565b600080604083850312156200092857600080fd5b50508035926020909101359150565b634e487b7160e01b600052604160045260246000fd5b600082601f8301126200095f57600080fd5b813567ffffffffffffffff808211156200097d576200097d62000937565b604051601f8301601f19908116603f01168101908282118183101715620009a857620009a862000937565b81604052838152866020858801011115620009c257600080fd5b836020870160208301376000602085830101528094505050505092915050565b60008060008060808587031215620009f957600080fd5b84359350602085013567ffffffffffffffff8082111562000a1957600080fd5b62000a27888389016200094d565b9450604087013591508082111562000a3e57600080fd5b62000a4c888389016200094d565b9350606087013591508082111562000a6357600080fd5b5062000a72878288016200094d565b91505092959194509250565b600181811c9082168062000a9357607f821691505b60208210810362000ab457634e487b7160e01b600052602260045260246000fd5b50919050565b8082018082111562000adc57634e487b7160e01b600052601160045260246000fd5b92915050565b60608152600062000af7606083018662000875565b828103602084015262000b0b818662000875565b91505060018060a01b0383166040830152949350505050565b60018060a01b038416815282602082015260606040820152600062000b4d606083018462000875565b95945050505050565b601f82111562000ba457600081815260208120601f850160051c8101602086101562000b7f5750805b601f850160051c820191505b8181101562000ba05782815560010162000b8b565b5050505b505050565b815167ffffffffffffffff81111562000bc65762000bc662000937565b62000bde8162000bd7845462000a7e565b8462000b56565b602080601f83116001811462000c16576000841562000bfd5750858301515b600019600386901b1c1916600185901b17855562000ba0565b600085815260208120601f198616915b8281101562000c475788860151825594840194600190910190840162000c26565b508582101562000c665787850151600019600388901b60f8161c191681555b5050505050600190811b01905550565b6000825162000c8a8184602087016200084f565b919091019291505056fe60a06040523480156200001157600080fd5b506040516200169538038062001695833981016040819052620000349162000130565b828260006200004483826200024c565b5060016200005382826200024c565b5050506001600160a01b031660805250620003189050565b634e487b7160e01b600052604160045260246000fd5b600082601f8301126200009357600080fd5b81516001600160401b0380821115620000b057620000b06200006b565b604051601f8301601f19908116603f01168101908282118183101715620000db57620000db6200006b565b81604052838152602092508683858801011115620000f857600080fd5b600091505b838210156200011c5785820183015181830184015290820190620000fd565b600093810190920192909252949350505050565b6000806000606084860312156200014657600080fd5b83516001600160401b03808211156200015e57600080fd5b6200016c8783880162000081565b945060208601519150808211156200018357600080fd5b50620001928682870162000081565b604086015190935090506001600160a01b0381168114620001b257600080fd5b809150509250925092565b600181811c90821680620001d257607f821691505b602082108103620001f357634e487b7160e01b600052602260045260246000fd5b50919050565b601f8211156200024757600081815260208120601f850160051c81016020861015620002225750805b601f850160051c820191505b8181101562000243578281556001016200022e565b5050505b505050565b81516001600160401b038111156200026857620002686200006b565b6200028081620002798454620001bd565b84620001f9565b602080601f831160018114620002b857600084156200029f5750858301515b600019600386901b1c1916600185901b17855562000243565b600085815260208120601f198616915b82811015620002e957888601518255948401946001909101908401620002c8565b5085821015620003085787850151600019600388901b60f8161c191681555b5050505050600190811b01905550565b60805161136162000334600039600061043f01526113616000f3fe608060405234801561001057600080fd5b50600436106100ea5760003560e01c806370a082311161008c578063a22cb46511610066578063a22cb465146101e1578063b88d4fde146101f4578063c87b56dd14610207578063e985e9c51461021a57600080fd5b806370a08231146101a557806395d89b41146101c6578063a00939f6146101ce57600080fd5b8063095ea7b3116100c8578063095ea7b31461015757806323b872dd1461016c57806342842e0e1461017f5780636352211e1461019257600080fd5b806301ffc9a7146100ef57806306fdde0314610117578063081812fc1461012c575b600080fd5b6101026100fd366004610e1b565b61022d565b60405190151581526020015b60405180910390f35b61011f610258565b60405161010e9190610e88565b61013f61013a366004610e9b565b6102ea565b6040516001600160a01b03909116815260200161010e565b61016a610165366004610ed0565b610313565b005b61016a61017a366004610efa565b610322565b61016a61018d366004610efa565b6103b2565b61013f6101a0366004610e9b565b6103d2565b6101b86101b3366004610f36565b6103dd565b60405190815260200161010e565b61011f610425565b61016a6101dc366004610fdd565b610434565b61016a6101ef366004611048565b6104e8565b61016a610202366004611084565b6104f3565b61011f610215366004610e9b565b61050a565b610102610228366004611100565b61061b565b60006001600160e01b03198216632483248360e11b1480610252575061025282610649565b92915050565b60606000805461026790611133565b80601f016020809104026020016040519081016040528092919081815260200182805461029390611133565b80156102e05780601f106102b5576101008083540402835291602001916102e0565b820191906000526020600020905b8154815290600101906020018083116102c357829003601f168201915b5050505050905090565b60006102f582610699565b506000828152600460205260409020546001600160a01b0316610252565b61031e8282336106d2565b5050565b6001600160a01b03821661035157604051633250574960e11b8152600060048201526024015b60405180910390fd5b600061035e8383336106df565b9050836001600160a01b0316816001600160a01b0316146103ac576040516364283d7b60e01b81526001600160a01b0380861660048301526024820184905282166044820152606401610348565b50505050565b6103cd838383604051806020016040528060008152506104f3565b505050565b600061025282610699565b60006001600160a01b038216610409576040516322718ad960e21b815260006004820152602401610348565b506001600160a01b031660009081526003602052604090205490565b60606001805461026790611133565b336001600160a01b037f000000000000000000000000000000000000000000000000000000000000000016146104b85760405162461bcd60e51b815260206004820152602360248201527f4f6e6c7920666163746f72792063616e2063616c6c20746869732066756e637460448201526234b7b760e91b6064820152608401610348565b60015b8281116103ac576104cc84826107d8565b6104d6818361083d565b806104e08161116d565b9150506104bb565b61031e33838361088d565b6104fe848484610322565b6103ac8484848461092c565b606061051582610699565b506000828152600660205260408120805461052f90611133565b80601f016020809104026020016040519081016040528092919081815260200182805461055b90611133565b80156105a85780601f1061057d576101008083540402835291602001916105a8565b820191906000526020600020905b81548152906001019060200180831161058b57829003601f168201915b5050505050905060006105c660408051602081019091526000815290565b905080516000036105d8575092915050565b81511561060a5780826040516020016105f2929190611194565b60405160208183030381529060405292505050919050565b61061384610a55565b949350505050565b6001600160a01b03918216600090815260056020908152604080832093909416825291909152205460ff1690565b60006001600160e01b031982166380ac58cd60e01b148061067a57506001600160e01b03198216635b5e139f60e01b145b8061025257506301ffc9a760e01b6001600160e01b0319831614610252565b6000818152600260205260408120546001600160a01b03168061025257604051637e27328960e01b815260048101849052602401610348565b6103cd8383836001610aca565b6000828152600260205260408120546001600160a01b039081169083161561070c5761070c818486610bd0565b6001600160a01b0381161561074a57610729600085600080610aca565b6001600160a01b038116600090815260036020526040902080546000190190555b6001600160a01b03851615610779576001600160a01b0385166000908152600360205260409020805460010190555b60008481526002602052604080822080546001600160a01b0319166001600160a01b0389811691821790925591518793918516917fddf252ad1be2c89b69c2b068fc378daa952ba7f163c4a11628f55a4df523b3ef91a4949350505050565b6001600160a01b03821661080257604051633250574960e11b815260006004820152602401610348565b6000610810838360006106df565b90506001600160a01b038116156103cd576040516339e3563760e11b815260006004820152602401610348565b60008281526006602052604090206108558282611211565b506040518281527ff8e1a15aba9398e019f0b49df1a4fde98ee17ae345cb5f6b5e2c27f5033e8ce79060200160405180910390a15050565b6001600160a01b0382166108bf57604051630b61174360e31b81526001600160a01b0383166004820152602401610348565b6001600160a01b03838116600081815260056020908152604080832094871680845294825291829020805460ff191686151590811790915591519182527f17307eab39ab6107e8899845ad3d59bd9653f200f220920489ca2b5937696c31910160405180910390a3505050565b6001600160a01b0383163b156103ac57604051630a85bd0160e11b81526001600160a01b0384169063150b7a029061096e9033908890879087906004016112d1565b6020604051808303816000875af19250505080156109a9575060408051601f3d908101601f191682019092526109a69181019061130e565b60015b610a12573d8080156109d7576040519150601f19603f3d011682016040523d82523d6000602084013e6109dc565b606091505b508051600003610a0a57604051633250574960e11b81526001600160a01b0385166004820152602401610348565b805181602001fd5b6001600160e01b03198116630a85bd0160e11b14610a4e57604051633250574960e11b81526001600160a01b0385166004820152602401610348565b5050505050565b6060610a6082610699565b506000610a7860408051602081019091526000815290565b90506000815111610a985760405180602001604052806000815250610ac3565b80610aa284610c34565b604051602001610ab3929190611194565b6040516020818303038152906040525b9392505050565b8080610ade57506001600160a01b03821615155b15610ba0576000610aee84610699565b90506001600160a01b03831615801590610b1a5750826001600160a01b0316816001600160a01b031614155b8015610b2d5750610b2b818461061b565b155b15610b565760405163a9fbf51f60e01b81526001600160a01b0384166004820152602401610348565b8115610b9e5783856001600160a01b0316826001600160a01b03167f8c5be1e5ebec7d5bd14f71427d1e84f3dd0314c0f7b2291e5b200ac8c7c3b92560405160405180910390a45b505b5050600090815260046020526040902080546001600160a01b0319166001600160a01b0392909216919091179055565b610bdb838383610cc7565b6103cd576001600160a01b038316610c0957604051637e27328960e01b815260048101829052602401610348565b60405163177e802f60e01b81526001600160a01b038316600482015260248101829052604401610348565b60606000610c4183610d2a565b600101905060008167ffffffffffffffff811115610c6157610c61610f51565b6040519080825280601f01601f191660200182016040528015610c8b576020820181803683370190505b5090508181016020015b600019016f181899199a1a9b1b9c1cb0b131b232b360811b600a86061a8153600a8504945084610c9557509392505050565b60006001600160a01b038316158015906106135750826001600160a01b0316846001600160a01b03161480610d015750610d01848461061b565b806106135750506000908152600460205260409020546001600160a01b03908116911614919050565b60008072184f03e93ff9f4daa797ed6e38ed64bf6a1f0160401b8310610d695772184f03e93ff9f4daa797ed6e38ed64bf6a1f0160401b830492506040015b6d04ee2d6d415b85acef81000000008310610d95576d04ee2d6d415b85acef8100000000830492506020015b662386f26fc100008310610db357662386f26fc10000830492506010015b6305f5e1008310610dcb576305f5e100830492506008015b6127108310610ddf57612710830492506004015b60648310610df1576064830492506002015b600a83106102525760010192915050565b6001600160e01b031981168114610e1857600080fd5b50565b600060208284031215610e2d57600080fd5b8135610ac381610e02565b60005b83811015610e53578181015183820152602001610e3b565b50506000910152565b60008151808452610e74816020860160208601610e38565b601f01601f19169290920160200192915050565b602081526000610ac36020830184610e5c565b600060208284031215610ead57600080fd5b5035919050565b80356001600160a01b0381168114610ecb57600080fd5b919050565b60008060408385031215610ee357600080fd5b610eec83610eb4565b946020939093013593505050565b600080600060608486031215610f0f57600080fd5b610f1884610eb4565b9250610f2660208501610eb4565b9150604084013590509250925092565b600060208284031215610f4857600080fd5b610ac382610eb4565b634e487b7160e01b600052604160045260246000fd5b600067ffffffffffffffff80841115610f8257610f82610f51565b604051601f8501601f19908116603f01168101908282118183101715610faa57610faa610f51565b81604052809350858152868686011115610fc357600080fd5b858560208301376000602087830101525050509392505050565b600080600060608486031215610ff257600080fd5b610ffb84610eb4565b925060208401359150604084013567ffffffffffffffff81111561101e57600080fd5b8401601f8101861361102f57600080fd5b61103e86823560208401610f67565b9150509250925092565b6000806040838503121561105b57600080fd5b61106483610eb4565b91506020830135801515811461107957600080fd5b809150509250929050565b6000806000806080858703121561109a57600080fd5b6110a385610eb4565b93506110b160208601610eb4565b925060408501359150606085013567ffffffffffffffff8111156110d457600080fd5b8501601f810187136110e557600080fd5b6110f487823560208401610f67565b91505092959194509250565b6000806040838503121561111357600080fd5b61111c83610eb4565b915061112a60208401610eb4565b90509250929050565b600181811c9082168061114757607f821691505b60208210810361116757634e487b7160e01b600052602260045260246000fd5b50919050565b60006001820161118d57634e487b7160e01b600052601160045260246000fd5b5060010190565b600083516111a6818460208801610e38565b8351908301906111ba818360208801610e38565b01949350505050565b601f8211156103cd57600081815260208120601f850160051c810160208610156111ea5750805b601f850160051c820191505b81811015611209578281556001016111f6565b505050505050565b815167ffffffffffffffff81111561122b5761122b610f51565b61123f816112398454611133565b846111c3565b602080601f831160018114611274576000841561125c5750858301515b600019600386901b1c1916600185901b178555611209565b600085815260208120601f198616915b828110156112a357888601518255948401946001909101908401611284565b50858210156112c15787850151600019600388901b60f8161c191681555b5050505050600190811b01905550565b6001600160a01b038581168252841660208201526040810183905260806060820181905260009061130490830184610e5c565b9695505050505050565b60006020828403121561132057600080fd5b8151610ac381610e0256fea26469706673582212204694b4bbeda294d617549a5976760110c7a3fdb4c864984d0240880efe57eadb64736f6c63430008150033a2646970667358221220e6fc58b0904d9f5154d064eb73a97bd4bb4b72b206708ee649622fb8d60958fb64736f6c63430008150033",
        "linkReferences": {}
    },
    "methodIdentifiers": {
        "_totalItems()": "468be5dd",
        "itemNumToItem(uint256)": "2323621d",
        "listOnMarketplace(uint256,uint256)": "59d75e51",
        "newItem(uint256,string,string,string)": "f5dda66b",
        "purchase(uint256)": "efef39a1",
        "removeFromMarketplace(uint256)": "ab38cb56"
    },
    "id": 1
}