{
  "_format": "hh-sol-artifact-1",
  "contractName": "ItemFactory",
  "sourceName": "contracts/ItemFactory.sol",
  "abi": [
    {
      "anonymous": false,
      "inputs": [
        {
          "indexed": true,
          "internalType": "string",
          "name": "name",
          "type": "string"
        },
        {
          "indexed": true,
          "internalType": "string",
          "name": "uri",
          "type": "string"
        },
        {
          "indexed": true,
          "internalType": "uint256",
          "name": "totalSupply",
          "type": "uint256"
        }
      ],
      "name": "ItemCreated",
      "type": "event"
    },
    {
      "anonymous": false,
      "inputs": [
        {
          "indexed": true,
          "internalType": "uint256",
          "name": "itemNum",
          "type": "uint256"
        },
        {
          "indexed": false,
          "internalType": "uint256",
          "name": "tokenId",
          "type": "uint256"
        },
        {
          "indexed": true,
          "internalType": "address",
          "name": "tokenAddress",
          "type": "address"
        }
      ],
      "name": "ItemSold",
      "type": "event"
    },
    {
      "inputs": [],
      "name": "_totalItems",
      "outputs": [
        {
          "internalType": "uint256",
          "name": "",
          "type": "uint256"
        }
      ],
      "stateMutability": "view",
      "type": "function"
    },
    {
      "inputs": [
        {
          "internalType": "address",
          "name": "",
          "type": "address"
        },
        {
          "internalType": "uint256",
          "name": "",
          "type": "uint256"
        }
      ],
      "name": "creatorToItemAddresses",
      "outputs": [
        {
          "internalType": "address",
          "name": "",
          "type": "address"
        }
      ],
      "stateMutability": "view",
      "type": "function"
    },
    {
      "inputs": [
        {
          "internalType": "address",
          "name": "user_",
          "type": "address"
        }
      ],
      "name": "fetchMetadata",
      "outputs": [
        {
          "internalType": "string[]",
          "name": "",
          "type": "string[]"
        }
      ],
      "stateMutability": "view",
      "type": "function"
    },
    {
      "inputs": [
        {
          "internalType": "uint256",
          "name": "",
          "type": "uint256"
        }
      ],
      "name": "itemNumToItem",
      "outputs": [
        {
          "internalType": "bool",
          "name": "listing",
          "type": "bool"
        },
        {
          "internalType": "uint256",
          "name": "price",
          "type": "uint256"
        },
        {
          "internalType": "uint256",
          "name": "totalSupply",
          "type": "uint256"
        },
        {
          "internalType": "uint256",
          "name": "totalSold",
          "type": "uint256"
        },
        {
          "internalType": "address",
          "name": "itemAddress",
          "type": "address"
        },
        {
          "internalType": "address",
          "name": "creator",
          "type": "address"
        },
        {
          "internalType": "string",
          "name": "itemURI",
          "type": "string"
        },
        {
          "internalType": "string",
          "name": "itemName",
          "type": "string"
        }
      ],
      "stateMutability": "view",
      "type": "function"
    },
    {
      "inputs": [
        {
          "internalType": "uint256",
          "name": "itemNum_",
          "type": "uint256"
        },
        {
          "internalType": "uint256",
          "name": "price_",
          "type": "uint256"
        }
      ],
      "name": "listOnMarketplace",
      "outputs": [],
      "stateMutability": "nonpayable",
      "type": "function"
    },
    {
      "inputs": [
        {
          "internalType": "uint256",
          "name": "totalSupply_",
          "type": "uint256"
        },
        {
          "internalType": "string",
          "name": "name_",
          "type": "string"
        },
        {
          "internalType": "string",
          "name": "symbol_",
          "type": "string"
        },
        {
          "internalType": "string",
          "name": "itemURI_",
          "type": "string"
        }
      ],
      "name": "newItem",
      "outputs": [
        {
          "internalType": "uint256",
          "name": "",
          "type": "uint256"
        }
      ],
      "stateMutability": "nonpayable",
      "type": "function"
    },
    {
      "inputs": [
        {
          "internalType": "uint256",
          "name": "itemNum_",
          "type": "uint256"
        }
      ],
      "name": "purchase",
      "outputs": [],
      "stateMutability": "payable",
      "type": "function"
    },
    {
      "inputs": [
        {
          "internalType": "uint256",
          "name": "itemNum_",
          "type": "uint256"
        }
      ],
      "name": "removeFromMarketplace",
      "outputs": [],
      "stateMutability": "nonpayable",
      "type": "function"
    }
  ],
  "bytecode": "0x608060405234801561000f575f80fd5b50612c3d8061001d5f395ff3fe60806040526004361062000083575f3560e01c8063912925c41162000052578063912925c41462000152578063ab38cb561462000185578063efef39a114620001a9578063f5dda66b14620001c0575f80fd5b80632323621d1462000087578063468be5dd14620000ca57806359d75e5114620000ef5780638826f2711462000115575b5f80fd5b34801562000093575f80fd5b50620000ab620000a536600462000f29565b620001e4565b604051620000c198979695949392919062000f92565b60405180910390f35b348015620000d6575f80fd5b50620000e05f5481565b604051908152602001620000c1565b348015620000fb575f80fd5b50620001136200010d36600462001002565b62000357565b005b34801562000121575f80fd5b5062000139620001333660046200103f565b620003ed565b6040516001600160a01b039091168152602001620000c1565b3480156200015e575f80fd5b5062000176620001703660046200106a565b62000422565b604051620000c1919062001086565b34801562000191575f80fd5b5062000113620001a336600462000f29565b6200068b565b62000113620001ba36600462000f29565b62000722565b348015620001cc575f80fd5b50620000e0620001de366004620011b4565b620008e0565b600160208190525f9182526040909120805491810154600282015460038301546004840154600585015460068601805460ff909816979596949593946001600160a01b039384169493909216926200023c906200124a565b80601f01602080910402602001604051908101604052809291908181526020018280546200026a906200124a565b8015620002b95780601f106200028f57610100808354040283529160200191620002b9565b820191905f5260205f20905b8154815290600101906020018083116200029b57829003601f168201915b505050505090806007018054620002d0906200124a565b80601f0160208091040260200160405190810160405280929190818152602001828054620002fe906200124a565b80156200034d5780601f1062000323576101008083540402835291602001916200034d565b820191905f5260205f20905b8154815290600101906020018083116200032f57829003601f168201915b5050505050905088565b5f82815260016020526040902060058101546001600160a01b03163314620003db5760405162461bcd60e51b815260206004820152602c60248201527f4f6e6c79206f776e65722063616e206c6973742074686520746f6b656e206f6e60448201526b206d61726b6574706c61636560a01b60648201526084015b60405180910390fd5b805460ff191660019081178255015550565b6002602052815f5260405f20818154811062000407575f80fd5b5f918252602090912001546001600160a01b03169150829050565b6001600160a01b0381165f9081526002602090815260408083208054825181850281018501909352808352606094938301828280156200048a57602002820191905f5260205f20905b81546001600160a01b031681526001909101906020018083116200046b575b505050505090505f815190505f8167ffffffffffffffff811115620004b357620004b3620010ea565b604051908082528060200260200182016040528015620004e857816020015b6060815260200190600190039081620004d25790505b5090505f5b8281101562000682575f8482815181106200050c576200050c62001284565b602002602001015190505f816001600160a01b031663c87b56dd60016040518263ffffffff1660e01b81526004016200054791815260200190565b5f60405180830381865afa15801562000562573d5f803e3d5ffd5b505050506040513d5f823e601f3d908101601f191682016040526200058b919081019062001298565b90505f826001600160a01b03166306fdde036040518163ffffffff1660e01b81526004015f60405180830381865afa158015620005ca573d5f803e3d5ffd5b505050506040513d5f823e601f3d908101601f19168201604052620005f3919081019062001298565b90505f6200062482846040516020016200060f92919062001313565b60405160208183030381529060405262000d91565b90508060405160200162000639919062001396565b6040516020818303038152906040528686815181106200065d576200065d62001284565b60200260200101819052505050505080806200067990620013c7565b915050620004ed565b50949350505050565b5f81815260016020526040902060058101546001600160a01b031633146200070f5760405162461bcd60e51b815260206004820152603060248201527f4f6e6c79206f776e65722063616e2072656d6f76652074686520746f6b656e2060448201526f66726f6d206d61726b6574706c61636560801b6064820152608401620003d2565b805460ff191681555f1960019091015550565b5f818152600160205260409020805460ff16620007825760405162461bcd60e51b815260206004820152601760248201527f54686520746f6b656e206973206e6f74206c69737465640000000000000000006044820152606401620003d2565b80600101543414620007d75760405162461bcd60e51b815260206004820152601860248201527f546865207072696365206973206e6f7420636f727265637400000000000000006044820152606401620003d2565b5f81600301546001620007eb9190620013e2565b6004838101546040516323b872dd60e01b81523092810192909252336024830152604482018390529192506001600160a01b03909116906323b872dd906064015f604051808303815f87803b15801562000843575f80fd5b505af115801562000856573d5f803e3d5ffd5b505050506001826003015f828254620008709190620013e2565b909155505060028201546003830154036200089557815460ff191682555f1960018301555b60048201546040518281526001600160a01b039091169084907fe71ee3b6ca4c2ed0f39e902d3099665a3d01b1ea580f31b1cf85bb0e75d0f6079060200160405180910390a3505050565b5f838260015b5f54811162000adc575f8181526001602052604090206007018054620009a4919062000912906200124a565b80601f016020809104026020016040519081016040528092919081815260200182805462000940906200124a565b80156200098f5780601f1062000965576101008083540402835291602001916200098f565b820191905f5260205f20905b8154815290600101906020018083116200097157829003601f168201915b50505050508462000ef290919063ffffffff16565b15620009e15760405162461bcd60e51b815260206004820152600b60248201526a4974656d2065786973747360a81b6044820152606401620003d2565b5f818152600160205260409020600601805462000a96919062000a04906200124a565b80601f016020809104026020016040519081016040528092919081815260200182805462000a32906200124a565b801562000a815780601f1062000a575761010080835404028352916020019162000a81565b820191905f5260205f20905b81548152906001019060200180831162000a6357829003601f168201915b50505050508362000ef290919063ffffffff16565b1562000ad35760405162461bcd60e51b815260206004820152600b60248201526a4974656d2065786973747360a81b6044820152606401620003d2565b600101620008e6565b5060015f8082825462000af09190620013e2565b925050819055505f805490505f87873060405162000b0e9062000f1b565b62000b1c93929190620013f8565b604051809103905ff08015801562000b36573d5f803e3d5ffd5b506040516350049cfb60e11b81529091506001600160a01b0382169063a00939f69062000b6c9030908d908b9060040162001439565b5f604051808303815f87803b15801562000b84575f80fd5b505af115801562000b97573d5f803e3d5ffd5b505050505f6040518061010001604052805f151581526020015f1981526020018b81526020015f8152602001836001600160a01b03168152602001336001600160a01b031681526020018881526020018a815250905060025f336001600160a01b03166001600160a01b031681526020019081526020015f2082908060018154018082558091505060019003905f5260205f20015f9091909190916101000a8154816001600160a01b0302191690836001600160a01b031602179055508060015f8581526020019081526020015f205f820151815f015f6101000a81548160ff0219169083151502179055506020820151816001015560408201518160020155606082015181600301556080820151816004015f6101000a8154816001600160a01b0302191690836001600160a01b0316021790555060a0820151816005015f6101000a8154816001600160a01b0302191690836001600160a01b0316021790555060c082015181600601908162000d109190620014b3565b5060e0820151600782019062000d279082620014b3565b50905050898760405162000d3c919062001396565b60405180910390208a60405162000d54919062001396565b604051908190038120907f1378bf6381f4bd7b95019b6c0573fa45c4457032c909ac2550ed93289ba83d6e905f90a4509098975050505050505050565b606081515f0362000daf57505060408051602081019091525f815290565b5f60405180606001604052806040815260200162002bc86040913990505f60038451600262000ddf9190620013e2565b62000deb91906200157c565b62000df89060046200159c565b67ffffffffffffffff81111562000e135762000e13620010ea565b6040519080825280601f01601f19166020018201604052801562000e3e576020820181803683370190505b509050600182016020820185865187015b8082101562000eac576003820191508151603f8160121c168501518453600184019350603f81600c1c168501518453600184019350603f8160061c168501518453600184019350603f811685015184535060018301925062000e4f565b505060038651066001811462000ecb576002811462000edf5762000ee7565b603d6001830353603d600283035362000ee7565b603d60018303535b509195945050505050565b5f8151835114801562000f12575081805190602001208380519060200120145b90505b92915050565b61161180620015b783390190565b5f6020828403121562000f3a575f80fd5b5035919050565b5f5b8381101562000f5d57818101518382015260200162000f43565b50505f910152565b5f815180845262000f7e81602086016020860162000f41565b601f01601f19169290920160200192915050565b88151581526020810188905260408101879052606081018690526001600160a01b038581166080830152841660a082015261010060c082018190525f9062000fdd8382018662000f65565b905082810360e084015262000ff3818562000f65565b9b9a5050505050505050505050565b5f806040838503121562001014575f80fd5b50508035926020909101359150565b80356001600160a01b03811681146200103a575f80fd5b919050565b5f806040838503121562001051575f80fd5b6200105c8362001023565b946020939093013593505050565b5f602082840312156200107b575f80fd5b62000f128262001023565b5f602080830181845280855180835260408601915060408160051b87010192508387015f5b82811015620010dd57603f19888603018452620010ca85835162000f65565b94509285019290850190600101620010ab565b5092979650505050505050565b634e487b7160e01b5f52604160045260245ffd5b604051601f8201601f1916810167ffffffffffffffff811182821017156200112a576200112a620010ea565b604052919050565b5f67ffffffffffffffff8211156200114e576200114e620010ea565b50601f01601f191660200190565b5f82601f8301126200116c575f80fd5b8135620011836200117d8262001132565b620010fe565b81815284602083860101111562001198575f80fd5b816020850160208301375f918101602001919091529392505050565b5f805f8060808587031215620011c8575f80fd5b84359350602085013567ffffffffffffffff80821115620011e7575f80fd5b620011f5888389016200115c565b945060408701359150808211156200120b575f80fd5b62001219888389016200115c565b935060608701359150808211156200122f575f80fd5b506200123e878288016200115c565b91505092959194509250565b600181811c908216806200125f57607f821691505b6020821081036200127e57634e487b7160e01b5f52602260045260245ffd5b50919050565b634e487b7160e01b5f52603260045260245ffd5b5f60208284031215620012a9575f80fd5b815167ffffffffffffffff811115620012c0575f80fd5b8201601f81018413620012d1575f80fd5b8051620012e26200117d8262001132565b818152856020838501011115620012f7575f80fd5b6200130a82602083016020860162000f41565b95945050505050565b6803d913730b6b2911d160bd1b8152601160f91b6009820181905283515f91906200134681600a86016020890162000f41565b6901116101131b4b2111d160b51b600a9185019182015260148101919091528351906200137b82601583016020880162000f41565b61227d60f01b91016015810191909152601701949350505050565b5f8251620013a981846020870162000f41565b9190910192915050565b634e487b7160e01b5f52601160045260245ffd5b5f60018201620013db57620013db620013b3565b5060010190565b8082018082111562000f155762000f15620013b3565b606081525f6200140c606083018662000f65565b828103602084015262001420818662000f65565b91505060018060a01b0383166040830152949350505050565b60018060a01b0384168152826020820152606060408201525f6200130a606083018462000f65565b601f821115620014ae575f81815260208120601f850160051c81016020861015620014895750805b601f850160051c820191505b81811015620014aa5782815560010162001495565b5050505b505050565b815167ffffffffffffffff811115620014d057620014d0620010ea565b620014e881620014e184546200124a565b8462001461565b602080601f8311600181146200151e575f8415620015065750858301515b5f19600386901b1c1916600185901b178555620014aa565b5f85815260208120601f198616915b828110156200154e578886015182559484019460019091019084016200152d565b50858210156200156c57878501515f19600388901b60f8161c191681555b5050505050600190811b01905550565b5f826200159757634e487b7160e01b5f52601260045260245ffd5b500490565b808202811582820484141762000f155762000f15620013b356fe60a060405234801562000010575f80fd5b506040516200161138038062001611833981016040819052620000339162000127565b82825f6200004283826200023a565b5060016200005182826200023a565b5050506001600160a01b031660805250620003029050565b634e487b7160e01b5f52604160045260245ffd5b5f82601f8301126200008d575f80fd5b81516001600160401b0380821115620000aa57620000aa62000069565b604051601f8301601f19908116603f01168101908282118183101715620000d557620000d562000069565b81604052838152602092508683858801011115620000f1575f80fd5b5f91505b83821015620001145785820183015181830184015290820190620000f5565b5f93810190920192909252949350505050565b5f805f606084860312156200013a575f80fd5b83516001600160401b038082111562000151575f80fd5b6200015f878388016200007d565b9450602086015191508082111562000175575f80fd5b5062000184868287016200007d565b604086015190935090506001600160a01b0381168114620001a3575f80fd5b809150509250925092565b600181811c90821680620001c357607f821691505b602082108103620001e257634e487b7160e01b5f52602260045260245ffd5b50919050565b601f82111562000235575f81815260208120601f850160051c81016020861015620002105750805b601f850160051c820191505b8181101562000231578281556001016200021c565b5050505b505050565b81516001600160401b0381111562000256576200025662000069565b6200026e81620002678454620001ae565b84620001e8565b602080601f831160018114620002a4575f84156200028c5750858301515b5f19600386901b1c1916600185901b17855562000231565b5f85815260208120601f198616915b82811015620002d457888601518255948401946001909101908401620002b3565b5085821015620002f257878501515f19600388901b60f8161c191681555b5050505050600190811b01905550565b6080516112f66200031b5f395f61042c01526112f65ff3fe608060405234801561000f575f80fd5b50600436106100e5575f3560e01c806370a0823111610088578063a22cb46511610063578063a22cb465146101db578063b88d4fde146101ee578063c87b56dd14610201578063e985e9c514610214575f80fd5b806370a082311461019f57806395d89b41146101c0578063a00939f6146101c8575f80fd5b8063095ea7b3116100c3578063095ea7b31461015157806323b872dd1461016657806342842e0e146101795780636352211e1461018c575f80fd5b806301ffc9a7146100e957806306fdde0314610111578063081812fc14610126575b5f80fd5b6100fc6100f7366004610de2565b610227565b60405190151581526020015b60405180910390f35b610119610251565b6040516101089190610e4a565b610139610134366004610e5c565b6102e0565b6040516001600160a01b039091168152602001610108565b61016461015f366004610e8e565b610307565b005b610164610174366004610eb6565b610316565b610164610187366004610eb6565b6103a4565b61013961019a366004610e5c565b6103c3565b6101b26101ad366004610eef565b6103cd565b604051908152602001610108565b610119610412565b6101646101d6366004610f8f565b610421565b6101646101e9366004610ff5565b6104d5565b6101646101fc36600461102e565b6104e0565b61011961020f366004610e5c565b6104f7565b6100fc6102223660046110a5565b610602565b5f6001600160e01b03198216632483248360e11b148061024b575061024b8261062f565b92915050565b60605f805461025f906110d6565b80601f016020809104026020016040519081016040528092919081815260200182805461028b906110d6565b80156102d65780601f106102ad576101008083540402835291602001916102d6565b820191905f5260205f20905b8154815290600101906020018083116102b957829003601f168201915b5050505050905090565b5f6102ea8261067e565b505f828152600460205260409020546001600160a01b031661024b565b6103128282336106b6565b5050565b6001600160a01b03821661034457604051633250574960e11b81525f60048201526024015b60405180910390fd5b5f6103508383336106c3565b9050836001600160a01b0316816001600160a01b03161461039e576040516364283d7b60e01b81526001600160a01b038086166004830152602482018490528216604482015260640161033b565b50505050565b6103be83838360405180602001604052805f8152506104e0565b505050565b5f61024b8261067e565b5f6001600160a01b0382166103f7576040516322718ad960e21b81525f600482015260240161033b565b506001600160a01b03165f9081526003602052604090205490565b60606001805461025f906110d6565b336001600160a01b037f000000000000000000000000000000000000000000000000000000000000000016146104a55760405162461bcd60e51b815260206004820152602360248201527f4f6e6c7920666163746f72792063616e2063616c6c20746869732066756e637460448201526234b7b760e91b606482015260840161033b565b60015b82811161039e576104b984826107b5565b6104c38183610816565b806104cd8161110e565b9150506104a8565b610312338383610865565b6104eb848484610316565b61039e84848484610903565b60606105028261067e565b505f828152600660205260408120805461051b906110d6565b80601f0160208091040260200160405190810160405280929190818152602001828054610547906110d6565b80156105925780601f1061056957610100808354040283529160200191610592565b820191905f5260205f20905b81548152906001019060200180831161057557829003601f168201915b505050505090505f6105ae60408051602081019091525f815290565b905080515f036105bf575092915050565b8151156105f15780826040516020016105d9929190611132565b60405160208183030381529060405292505050919050565b6105fa84610a29565b949350505050565b6001600160a01b039182165f90815260056020908152604080832093909416825291909152205460ff1690565b5f6001600160e01b031982166380ac58cd60e01b148061065f57506001600160e01b03198216635b5e139f60e01b145b8061024b57506301ffc9a760e01b6001600160e01b031983161461024b565b5f818152600260205260408120546001600160a01b03168061024b57604051637e27328960e01b81526004810184905260240161033b565b6103be8383836001610a9a565b5f828152600260205260408120546001600160a01b03908116908316156106ef576106ef818486610b9e565b6001600160a01b038116156107295761070a5f855f80610a9a565b6001600160a01b0381165f90815260036020526040902080545f190190555b6001600160a01b03851615610757576001600160a01b0385165f908152600360205260409020805460010190555b5f8481526002602052604080822080546001600160a01b0319166001600160a01b0389811691821790925591518793918516917fddf252ad1be2c89b69c2b068fc378daa952ba7f163c4a11628f55a4df523b3ef91a4949350505050565b6001600160a01b0382166107de57604051633250574960e11b81525f600482015260240161033b565b5f6107ea83835f6106c3565b90506001600160a01b038116156103be576040516339e3563760e11b81525f600482015260240161033b565b5f82815260066020526040902061082d82826111ad565b506040518281527ff8e1a15aba9398e019f0b49df1a4fde98ee17ae345cb5f6b5e2c27f5033e8ce79060200160405180910390a15050565b6001600160a01b03821661089757604051630b61174360e31b81526001600160a01b038316600482015260240161033b565b6001600160a01b038381165f81815260056020908152604080832094871680845294825291829020805460ff191686151590811790915591519182527f17307eab39ab6107e8899845ad3d59bd9653f200f220920489ca2b5937696c31910160405180910390a3505050565b6001600160a01b0383163b1561039e57604051630a85bd0160e11b81526001600160a01b0384169063150b7a0290610945903390889087908790600401611269565b6020604051808303815f875af192505050801561097f575060408051601f3d908101601f1916820190925261097c918101906112a5565b60015b6109e6573d8080156109ac576040519150601f19603f3d011682016040523d82523d5f602084013e6109b1565b606091505b5080515f036109de57604051633250574960e11b81526001600160a01b038516600482015260240161033b565b805181602001fd5b6001600160e01b03198116630a85bd0160e11b14610a2257604051633250574960e11b81526001600160a01b038516600482015260240161033b565b5050505050565b6060610a348261067e565b505f610a4a60408051602081019091525f815290565b90505f815111610a685760405180602001604052805f815250610a93565b80610a7284610c02565b604051602001610a83929190611132565b6040516020818303038152906040525b9392505050565b8080610aae57506001600160a01b03821615155b15610b6f575f610abd8461067e565b90506001600160a01b03831615801590610ae95750826001600160a01b0316816001600160a01b031614155b8015610afc5750610afa8184610602565b155b15610b255760405163a9fbf51f60e01b81526001600160a01b038416600482015260240161033b565b8115610b6d5783856001600160a01b0316826001600160a01b03167f8c5be1e5ebec7d5bd14f71427d1e84f3dd0314c0f7b2291e5b200ac8c7c3b92560405160405180910390a45b505b50505f90815260046020526040902080546001600160a01b0319166001600160a01b0392909216919091179055565b610ba9838383610c92565b6103be576001600160a01b038316610bd757604051637e27328960e01b81526004810182905260240161033b565b60405163177e802f60e01b81526001600160a01b03831660048201526024810182905260440161033b565b60605f610c0e83610cf3565b60010190505f8167ffffffffffffffff811115610c2d57610c2d610f08565b6040519080825280601f01601f191660200182016040528015610c57576020820181803683370190505b5090508181016020015b5f19016f181899199a1a9b1b9c1cb0b131b232b360811b600a86061a8153600a8504945084610c6157509392505050565b5f6001600160a01b038316158015906105fa5750826001600160a01b0316846001600160a01b03161480610ccb5750610ccb8484610602565b806105fa5750505f908152600460205260409020546001600160a01b03908116911614919050565b5f8072184f03e93ff9f4daa797ed6e38ed64bf6a1f0160401b8310610d315772184f03e93ff9f4daa797ed6e38ed64bf6a1f0160401b830492506040015b6d04ee2d6d415b85acef81000000008310610d5d576d04ee2d6d415b85acef8100000000830492506020015b662386f26fc100008310610d7b57662386f26fc10000830492506010015b6305f5e1008310610d93576305f5e100830492506008015b6127108310610da757612710830492506004015b60648310610db9576064830492506002015b600a831061024b5760010192915050565b6001600160e01b031981168114610ddf575f80fd5b50565b5f60208284031215610df2575f80fd5b8135610a9381610dca565b5f5b83811015610e17578181015183820152602001610dff565b50505f910152565b5f8151808452610e36816020860160208601610dfd565b601f01601f19169290920160200192915050565b602081525f610a936020830184610e1f565b5f60208284031215610e6c575f80fd5b5035919050565b80356001600160a01b0381168114610e89575f80fd5b919050565b5f8060408385031215610e9f575f80fd5b610ea883610e73565b946020939093013593505050565b5f805f60608486031215610ec8575f80fd5b610ed184610e73565b9250610edf60208501610e73565b9150604084013590509250925092565b5f60208284031215610eff575f80fd5b610a9382610e73565b634e487b7160e01b5f52604160045260245ffd5b5f67ffffffffffffffff80841115610f3657610f36610f08565b604051601f8501601f19908116603f01168101908282118183101715610f5e57610f5e610f08565b81604052809350858152868686011115610f76575f80fd5b858560208301375f602087830101525050509392505050565b5f805f60608486031215610fa1575f80fd5b610faa84610e73565b925060208401359150604084013567ffffffffffffffff811115610fcc575f80fd5b8401601f81018613610fdc575f80fd5b610feb86823560208401610f1c565b9150509250925092565b5f8060408385031215611006575f80fd5b61100f83610e73565b915060208301358015158114611023575f80fd5b809150509250929050565b5f805f8060808587031215611041575f80fd5b61104a85610e73565b935061105860208601610e73565b925060408501359150606085013567ffffffffffffffff81111561107a575f80fd5b8501601f8101871361108a575f80fd5b61109987823560208401610f1c565b91505092959194509250565b5f80604083850312156110b6575f80fd5b6110bf83610e73565b91506110cd60208401610e73565b90509250929050565b600181811c908216806110ea57607f821691505b60208210810361110857634e487b7160e01b5f52602260045260245ffd5b50919050565b5f6001820161112b57634e487b7160e01b5f52601160045260245ffd5b5060010190565b5f8351611143818460208801610dfd565b835190830190611157818360208801610dfd565b01949350505050565b601f8211156103be575f81815260208120601f850160051c810160208610156111865750805b601f850160051c820191505b818110156111a557828155600101611192565b505050505050565b815167ffffffffffffffff8111156111c7576111c7610f08565b6111db816111d584546110d6565b84611160565b602080601f83116001811461120e575f84156111f75750858301515b5f19600386901b1c1916600185901b1785556111a5565b5f85815260208120601f198616915b8281101561123c5788860151825594840194600190910190840161121d565b508582101561125957878501515f19600388901b60f8161c191681555b5050505050600190811b01905550565b6001600160a01b03858116825284166020820152604081018390526080606082018190525f9061129b90830184610e1f565b9695505050505050565b5f602082840312156112b5575f80fd5b8151610a9381610dca56fea26469706673582212205ed5981e58996b4da5f985ec57b200ba833002336e2a796ab13c0fd2a1b2fa3064736f6c634300081400334142434445464748494a4b4c4d4e4f505152535455565758595a6162636465666768696a6b6c6d6e6f707172737475767778797a303132333435363738392b2fa2646970667358221220ebd764952b358cfceeee69e09aaf69fa3a61a098d5e7e02ddd5853264ee0547464736f6c63430008140033",
  "linkReferences": {},
  "deployedLinkReferences": {}
}